{
  "contractName": "Demo",
  "abi": [
    {
      "inputs": [],
      "stateMutability": "nonpayable",
      "type": "constructor"
    },
    {
      "inputs": [],
      "name": "owner",
      "outputs": [
        {
          "internalType": "address payable",
          "name": "",
          "type": "address"
        }
      ],
      "stateMutability": "view",
      "type": "function"
    },
    {
      "inputs": [],
      "name": "balanceOf",
      "outputs": [
        {
          "internalType": "uint256",
          "name": "",
          "type": "uint256"
        }
      ],
      "stateMutability": "view",
      "type": "function"
    },
    {
      "inputs": [
        {
          "internalType": "address payable",
          "name": "_addr",
          "type": "address"
        }
      ],
      "name": "send",
      "outputs": [],
      "stateMutability": "payable",
      "type": "function"
    }
  ],
  "bytecode": "0x608060405234801561001057600080fd5b50336000806101000a81548173ffffffffffffffffffffffffffffffffffffffff021916908373ffffffffffffffffffffffffffffffffffffffff160217905550610292806100606000396000f3fe6080604052600436106100345760003560e01c80633e58c58c14610039578063722713f7146100555780638da5cb5b14610080575b600080fd5b610053600480360381019061004e91906101d1565b6100ab565b005b34801561006157600080fd5b5061006a61010a565b6040516100779190610217565b60405180910390f35b34801561008c57600080fd5b5061009561014a565b6040516100a29190610241565b60405180910390f35b670de0b6b3a76400003410156100c057600080fd5b8073ffffffffffffffffffffffffffffffffffffffff166108fc349081150290604051600060405180830381858888f19350505050158015610106573d6000803e3d6000fd5b5050565b60008060009054906101000a900473ffffffffffffffffffffffffffffffffffffffff1673ffffffffffffffffffffffffffffffffffffffff1631905090565b60008054906101000a900473ffffffffffffffffffffffffffffffffffffffff1681565b600080fd5b600073ffffffffffffffffffffffffffffffffffffffff82169050919050565b600061019e82610173565b9050919050565b6101ae81610193565b81146101b957600080fd5b50565b6000813590506101cb816101a5565b92915050565b6000602082840312156101e7576101e661016e565b5b60006101f5848285016101bc565b91505092915050565b6000819050919050565b610211816101fe565b82525050565b600060208201905061022c6000830184610208565b92915050565b61023b81610193565b82525050565b60006020820190506102566000830184610232565b9291505056fea26469706673582212203acab4186d0128f1a8156960353d6f340cea92cf8ee985c680ef10c42c2c304f64736f6c634300080f0033",
  "immutableReferences": {},
  "source": "// SPDX-License-Identifier: MIT\npragma solidity >=0.4.22 <0.9.0;\n\ncontract Demo {\n  address payable public owner;\n  constructor(){\n    owner=payable(msg.sender);\n  }\n\n\n  // function withdraw(uint _amount) external {\n  //   require(msg.sender==owner);\n  //   payable(msg.sender).transfer(_amount);\n  // }\n\n  function balanceOf() external view returns (uint){\n    return address(owner).balance;\n  }\n  \n    function send(address payable _addr) payable public {\n        require(msg.value >= 1 ether);\n        _addr.transfer(msg.value);\n    }\n}\n",
  "sourcePath": "C:\\Users\\harshita saxena\\OneDrive\\Desktop\\demo\\contracts\\Demo.sol",
  "compiler": {
    "name": "solc",
    "version": "0.8.15+commit.e14f2714.Emscripten.clang"
  },
  "schemaVersion": "3.4.4",
  "updatedAt": "2022-07-08T13:34:43.079Z",
  "devdoc": {
    "kind": "dev",
    "methods": {},
    "version": 1
  },
  "userdoc": {
    "kind": "user",
    "methods": {},
    "version": 1
  }
}