{
  "contractName": "Demo",
  "abi": [
    {
      "inputs": [],
      "stateMutability": "nonpayable",
      "type": "constructor"
    },
    {
      "inputs": [],
      "name": "owner",
      "outputs": [
        {
          "internalType": "address payable",
          "name": "",
          "type": "address"
        }
      ],
      "stateMutability": "view",
      "type": "function"
    },
    {
      "inputs": [],
      "name": "balanceOf",
      "outputs": [
        {
          "internalType": "uint256",
          "name": "",
          "type": "uint256"
        }
      ],
      "stateMutability": "view",
      "type": "function"
    },
    {
      "inputs": [
        {
          "internalType": "address payable",
          "name": "_addr",
          "type": "address"
        },
        {
          "internalType": "uint256",
          "name": "amount",
          "type": "uint256"
        }
      ],
      "name": "send",
      "outputs": [],
      "stateMutability": "payable",
      "type": "function"
    }
  ],
  "bytecode": "0x608060405234801561001057600080fd5b50336000806101000a81548173ffffffffffffffffffffffffffffffffffffffff021916908373ffffffffffffffffffffffffffffffffffffffff160217905550610321806100606000396000f3fe6080604052600436106100345760003560e01c8063722713f7146100395780638da5cb5b14610064578063d0679d341461008f575b600080fd5b34801561004557600080fd5b5061004e6100ab565b60405161005b9190610266565b60405180910390f35b34801561007057600080fd5b506100796100eb565b604051610086919061024b565b60405180910390f35b6100a960048036038101906100a491906101f1565b61010f565b005b60008060009054906101000a900473ffffffffffffffffffffffffffffffffffffffff1673ffffffffffffffffffffffffffffffffffffffff1631905090565b60008054906101000a900473ffffffffffffffffffffffffffffffffffffffff1681565b670de0b6b3a764000081101561012457600080fd5b60008054906101000a900473ffffffffffffffffffffffffffffffffffffffff1673ffffffffffffffffffffffffffffffffffffffff163373ffffffffffffffffffffffffffffffffffffffff161461017c57600080fd5b8173ffffffffffffffffffffffffffffffffffffffff166108fc829081150290604051600060405180830381858888f193505050501580156101c2573d6000803e3d6000fd5b505050565b6000813590506101d6816102bd565b92915050565b6000813590506101eb816102d4565b92915050565b6000806040838503121561020457600080fd5b6000610212858286016101c7565b9250506020610223858286016101dc565b9150509250929050565b61023681610281565b82525050565b610245816102b3565b82525050565b6000602082019050610260600083018461022d565b92915050565b600060208201905061027b600083018461023c565b92915050565b600061028c82610293565b9050919050565b600073ffffffffffffffffffffffffffffffffffffffff82169050919050565b6000819050919050565b6102c681610281565b81146102d157600080fd5b50565b6102dd816102b3565b81146102e857600080fd5b5056fea26469706673582212208626e5d806079437d485d3c2c385fb5951812a7e0089e89116396c7f8189ff2464736f6c63430008000033",
  "immutableReferences": {},
  "source": "// SPDX-License-Identifier: MIT\r\npragma solidity >=0.4.22 <0.9.0;\r\n\r\ncontract Demo {\r\n  address payable public owner;\r\n\r\n  // event transferred(uint256 amount);\r\n  constructor(){\r\n    owner=payable(msg.sender);\r\n  }\r\n\r\n\r\n  // function withdraw(uint _amount) external {\r\n  //   require(msg.sender==owner);\r\n  //   payable(msg.sender).transfer(_amount);\r\n  // }\r\n\r\n  function balanceOf() external view returns (uint){\r\n    return address(owner).balance;\r\n  }\r\n  \r\n    function send(address payable _addr, uint256 amount) payable public{\r\n        require(amount >= 1 ether);\r\n        require(msg.sender==owner);\r\n        _addr.transfer(amount);\r\n        // uint256 temp = msg.value;\r\n        // emit transferred(temp);\r\n        // return temp;\r\n    }\r\n}\r\n",
  "sourcePath": "C:\\Users\\harshita saxena\\OneDrive\\Desktop\\Lab1\\contracts\\Demo.sol",
  "compiler": {
    "name": "solc",
    "version": "0.8.0+commit.c7dfd78e.Emscripten.clang"
  },
  "schemaVersion": "3.4.4",
  "updatedAt": "2022-07-10T07:20:10.047Z",
  "devdoc": {
    "kind": "dev",
    "methods": {},
    "version": 1
  },
  "userdoc": {
    "kind": "user",
    "methods": {},
    "version": 1
  }
}