{
  "contractName": "Demo",
  "abi": [
    {
      "inputs": [],
      "stateMutability": "nonpayable",
      "type": "constructor"
    },
    {
      "anonymous": false,
      "inputs": [
        {
          "indexed": false,
          "internalType": "uint256",
          "name": "amount",
          "type": "uint256"
        }
      ],
      "name": "transferred",
      "type": "event"
    },
    {
      "inputs": [],
      "name": "owner",
      "outputs": [
        {
          "internalType": "address payable",
          "name": "",
          "type": "address"
        }
      ],
      "stateMutability": "view",
      "type": "function"
    },
    {
      "inputs": [],
      "name": "balanceOf",
      "outputs": [
        {
          "internalType": "uint256",
          "name": "",
          "type": "uint256"
        }
      ],
      "stateMutability": "view",
      "type": "function"
    },
    {
      "inputs": [
        {
          "internalType": "address payable",
          "name": "_addr",
          "type": "address"
        }
      ],
      "name": "send",
      "outputs": [
        {
          "internalType": "uint256",
          "name": "",
          "type": "uint256"
        }
      ],
      "stateMutability": "payable",
      "type": "function"
    }
  ],
  "bytecode": "0x608060405234801561001057600080fd5b50336000806101000a81548173ffffffffffffffffffffffffffffffffffffffff021916908373ffffffffffffffffffffffffffffffffffffffff1602179055506102e1806100606000396000f3fe6080604052600436106100345760003560e01c80633e58c58c14610039578063722713f7146100695780638da5cb5b14610094575b600080fd5b610053600480360381019061004e91906101db565b6100bf565b604051610060919061023d565b60405180910390f35b34801561007557600080fd5b5061007e610162565b60405161008b919061023d565b60405180910390f35b3480156100a057600080fd5b506100a96101a2565b6040516100b69190610222565b60405180910390f35b6000670de0b6b3a76400003410156100d657600080fd5b8173ffffffffffffffffffffffffffffffffffffffff166108fc349081150290604051600060405180830381858888f1935050505015801561011c573d6000803e3d6000fd5b5060003490507fd7699088867fa76fdb100fe64589a89b82ccc3ee107f5847666c5e7eb2de0b8b81604051610151919061023d565b60405180910390a180915050919050565b60008060009054906101000a900473ffffffffffffffffffffffffffffffffffffffff1673ffffffffffffffffffffffffffffffffffffffff1631905090565b60008054906101000a900473ffffffffffffffffffffffffffffffffffffffff1681565b6000813590506101d581610294565b92915050565b6000602082840312156101ed57600080fd5b60006101fb848285016101c6565b91505092915050565b61020d81610258565b82525050565b61021c8161028a565b82525050565b60006020820190506102376000830184610204565b92915050565b60006020820190506102526000830184610213565b92915050565b60006102638261026a565b9050919050565b600073ffffffffffffffffffffffffffffffffffffffff82169050919050565b6000819050919050565b61029d81610258565b81146102a857600080fd5b5056fea2646970667358221220a641d823aafb427ab54e63dad24a9dc288cc44c08af2558353550757c495a61c64736f6c63430008000033",
  "immutableReferences": {},
  "source": "// SPDX-License-Identifier: MIT\r\npragma solidity >=0.4.22 <0.9.0;\r\n\r\ncontract Demo {\r\n  address payable public owner;\r\n\r\n  event transferred(uint256 amount);\r\n  constructor(){\r\n    owner=payable(msg.sender);\r\n  }\r\n\r\n\r\n  // function withdraw(uint _amount) external {\r\n  //   require(msg.sender==owner);\r\n  //   payable(msg.sender).transfer(_amount);\r\n  // }\r\n\r\n  function balanceOf() external view returns (uint){\r\n    return address(owner).balance;\r\n  }\r\n  \r\n    function send(address payable _addr) payable public returns(uint256){\r\n        require(msg.value >= 1 ether);\r\n        _addr.transfer(msg.value);\r\n        uint256 temp = msg.value;\r\n        emit transferred(temp);\r\n        return temp;\r\n    }\r\n}\r\n",
  "sourcePath": "C:\\Users\\harshita saxena\\OneDrive\\Desktop\\demo\\contracts\\Demo.sol",
  "compiler": {
    "name": "solc",
    "version": "0.8.0+commit.c7dfd78e.Emscripten.clang"
  },
  "schemaVersion": "3.4.4",
  "updatedAt": "2022-07-09T09:11:11.384Z",
  "devdoc": {
    "kind": "dev",
    "methods": {},
    "version": 1
  },
  "userdoc": {
    "kind": "user",
    "methods": {},
    "version": 1
  }
}